:1009C100415400415445300041542B434D47463D6D
:1009D100310041542B434D47533D22002B393737CA
:1009E10039373639303039373130002200456E74AD
:1009F10065722050617373776F7264005359535459
:100A0100454D20414354495645002B204368616EB2
:100A110067652050617373004E4557205041535311
:100A2100574F524400534543555249545920414C64
:100A31004552543A20446F6F722068617320626599
:100A4100656E206F70656E656420776974682063D8
:100A51006F72726563742070617373776F72642E45
:100A61000057524F4E472050415353574F52440065
:100A7100414C41524D2041435449564500494E5441
:100A8100525544455220414C4552543A2033207727
:100A9100726F6E672070617373776F726420617417
:100AA10074656D7074732120436865636B20707287
:100AB100656D6973657320696D6D656469617465E0
:100AC1006C792E0050415353574F52442053415695
:100AD1004544005345435552495459204E4F5449BA
:100AE10043453A2053797374656D20706173737750
:100AF1006F726420686173206265656E206368614E
:060B01006E6765642E0022
:100DB100102E3738392F3435362A3132332D43301E
:0E0DC1003D2B012D00012100013E000122000A
:080CD400C2B3D2B47F027E001E
:100CDC00E4FDFCC3ED9FEC9E5015E4FBFA0BBB004E
:0F0CEC00010AEB647B4A70F50DBD00010C80E43A
:010CFB0022D6
:100EA90053890F438920758DFD758BFDD28E7598F9
:020EB9005022C5
:080F1A008F993099FDC2992264
:100D23008B0F8A108911AB0FAA10A911120E206024
:100D3300130511E5117002051014F9120E20FF12AC
:050D43000F1A80E222FE
:0F0ECB00120D237F0D120F1A7FF47E01020CDC33
:100C7000120EA97FB87E0B120CDC7BFF7A0979C1BA
:100C8000120ECB7FF47E01120CDC7BFF7A0979C453
:100C9000120ECB7FF47E01120CDC7BFF7A0979C93E
:0A0CA000120ECB7FF47E01020CDC83
:100BEC008B0C8A0D890E7BFF7A0979D3120D237B2E
:100BFC00FF7A0979DD120D237BFF7A0979EC120D4E
:100C0C00237F0D120F1A7FE87E03120CDCAB0CAAAB
:100C1C000DA90E120D237F1A120F1A7F887E130254
:020C2C000CDCDE
:090EBB0092B6D2B7120EC4C2B700
:070EC4007F017E00020CDC3F
:0F0EDA00D2B6D2B7120EC4C2B6120EC4C2B7221D
:0C0EF600C2B6D2B7120EC4D2B6020EC4AF
:020CFC008F1057
:100CFE00E4F9E51033120EBBE51025E0F51009B945
:100D0E0008F0D2B6D2B7120EC4A2B69200C2B71273
:040D1E000EC4A2005D
:010D220022AE
:100CAA00E4F50ED2B6F9E50E25E0F50ED2B7120E2E
:100CBA00C430B603430E01C2B7120EC409B908E61E
:090CCA00A200120EBBD2B6AF0E5F
:010CD30022FE
:100D91008F0E8D0F120EDA7FA0120CFCAF0E120C0B
:100DA100FCAF0F120CFC120EF67F0A7E00020CDC67
:020D6D008F0DE8
:100D6F00120EDA7FA0120CFCAF0D120CFC120EDA71
:100D7F007FA1120CFCD200120CAAA907120EF6AF1B
:010D8F000162
:010D90002240
:100E0700E4F50D7423250DF8E6FDAF0D120D9105E0
:080E17000DE50DC3940440EB4E
:010E1F0022B0
:100C2E00E4F50CAF0C120D6D7423250CF8A6070518
:100C3E000CE50CC3940440EBE4F527E523B4FF2147
:100C4E00E524B4FF1CE525B4FF17E526B4FF1275A5
:100C5E002331752432752533752634E4F527120EAB
:010C6E00077E
:010C6F002262
:0C0F02008FA0C2B2120CD4C2B4020CDCEE
:0C0F0E008FA0D2B2120CD4C2B4020CDCD2
:100DEC007F327E00120CDC7F38120F027F0C120F48
:0B0DFC00027F01120F027F06020F02AF
:050F22007F01020F0237
:060E3900120F22E4FDFF90
:100E3F00A907ED7005E924808003E924C0FF120F94
:020E4F0002227D
:100D48008B0C8A0D890EAB0CAA0DA90E120E206011
:100D580013050EE50E7002050D14F9120E20FF1290
:050D68000F0E80E222E5
:030F2700D2B5221E
:030F2A00C2B5222B
:100E6900E4F9120F277FC87E00120CDC120F2A1238
:060E79000CDC09B90AECD3
:010E7F002250
:030F2D00D2872246
:030F3000C2872253
:0C0EE9007F057828E4F608DFFCE4F52D16
:010EF50022DA
:100E5100E4FF74232FF8E6FE74282FF8E66E600293
:070E6100C3220FBF04ECD314
:010E68002267
:030E8000120EE966
:100E8300120E397BFF7A0979EE120D487D01E4FFDA
:030E9300020E3F0D
:100DD000120E397BFF7A0979FD120D487D01E4FF7F
:0C0DE000120E3F7BFF7A0A790B020D48CF
:100E9600120E397BFF7A0A7919120D487D01E4FF9B
:030EA600020E3FFA
:100B9300E4F9D290D291D292D293E97002C290B981
:100BA3000102C291B90202C292B90302C2937F0544
:100BB3007E00120CDC209407E925E025E0FF2220CB
:100BC3009508E925E025E004FF22209609E925E0C0
:100BD30025E02402FF22209709E925E025E02403EC
:080BE300FF2209B904AC7FFFF9
:010BEB0022E7
:100800007509FFE4F5807590FFF5A075B0FF120D36
:10081000EC120F30120F2A120C70120C2E120E80D6
:10082000120B938F08E508F470030209BB7F1E7E4C
:1008300000120CDCE508650960E6742E2508F8E670
:10084000F50B850809E52160030208EDE508B40C05
:1008500005120E808038E50BC394304031E50BD390
:100860009439502AE52DC3940450237428252DF87B
:10087000A60B052D7D01E4FF120E3FE4F50AE50A03
:10088000C3952D50097F2A120F0E050A80F0E52D21
:10089000640460030209A1120E515018E4F53E757C
:1008A0002101120F2D120DD07BFF7A0A7926120B2F
:1008B000EC0209A1053E120E397BFF7A0A79621219
:1008C0000D487FD07E07120CDCE53EC39403402A1E
:1008D000120E397BFF7A0A7971120D48120E697B6C
:1008E000FF7A0A797E120BECE4F53E800DE508B440
:1008F0000C11120F30E4F521F522120EE9120E83CD
:100900000209A1E508B40F0C752201120EE9120EBE
:10091000960209A1E52270030209A1E50BC39430F8
:100920004031E50BD39439502AE52DC3940450236C
:100930007428252DF8A60B052D7D01E4FF120E3F2E
:10094000E4F50AE50AC3952D50097F2A120F0E051A
:100950000A80F0E508640E7048E52D64047042F5E5
:100960000A7428250AF8E6FF7423250AF8A6070565
:100970000AE50AB404EBE4F527120E07120E397BE0
:10098000FF7A0A79C5120D487FD07E07120CDC7BF6
:10099000FF7A0A79D4120BECE4F522120EE9120D5B
:1009A000D0120B93EFF460097F0A7E00120CDC80FA
:1009B000F07F647E00120CDC0208207509FF02083B
:0109C0002016
:03000000020B07E9
:0C0B0700787FE4F6D8FD75813E020B4EAD
:100E2000BB010689828A83E0225002E722BBFE02D0
:090E3000E32289828A83E4932203
:100B1300020800E493A3F8E493A34003F68001F2F0
:100B230008DFF48029E493A3F85407240CC8C333E3
:100B3300C4540F4420C8834004F456800146F6DFB2
:100B4300E4800B0102040810204080900DB1E47E84
:100B5300019360BCA3FF543F30E509541FFEE493A7
:100B6300A360010ECF54C025E060A840B8E493A36E
:100B7300FAE493A3F8E493A3C8C582C8CAC583CA99
:100B8300F0A3C8C582C8CAC583CADFE9DEE780BE51
:010DCF000023
:00000001FF
